{"abi":[{"type":"constructor","inputs":[{"name":"firstResultado_","type":"uint256","internalType":"uint256"},{"name":"admin_","type":"address","internalType":"address"}],"stateMutability":"nonpayable"},{"type":"function","name":"addition","inputs":[{"name":"firstNumber_","type":"uint256","internalType":"uint256"},{"name":"secondNumber_","type":"uint256","internalType":"uint256"}],"outputs":[{"name":"resultado_","type":"uint256","internalType":"uint256"}],"stateMutability":"nonpayable"},{"type":"function","name":"admin","inputs":[],"outputs":[{"name":"","type":"address","internalType":"address"}],"stateMutability":"view"},{"type":"function","name":"division","inputs":[{"name":"firstNumber_","type":"uint256","internalType":"uint256"},{"name":"secondNumber_","type":"uint256","internalType":"uint256"}],"outputs":[{"name":"resultado_","type":"uint256","internalType":"uint256"}],"stateMutability":"nonpayable"},{"type":"function","name":"multiplication","inputs":[{"name":"firstNumber_","type":"uint256","internalType":"uint256"},{"name":"secondNumber_","type":"uint256","internalType":"uint256"}],"outputs":[{"name":"resultado_","type":"uint256","internalType":"uint256"}],"stateMutability":"nonpayable"},{"type":"function","name":"resultado","inputs":[],"outputs":[{"name":"","type":"uint256","internalType":"uint256"}],"stateMutability":"view"},{"type":"function","name":"substraction","inputs":[{"name":"firstNumber_","type":"uint256","internalType":"uint256"},{"name":"secondNumber_","type":"uint256","internalType":"uint256"}],"outputs":[{"name":"resultado_","type":"uint256","internalType":"uint256"}],"stateMutability":"nonpayable"},{"type":"event","name":"Addition","inputs":[{"name":"firstNumber_","type":"uint256","indexed":false,"internalType":"uint256"},{"name":"secondNumber_","type":"uint256","indexed":false,"internalType":"uint256"},{"name":"resultado_","type":"uint256","indexed":false,"internalType":"uint256"}],"anonymous":false},{"type":"event","name":"Division","inputs":[{"name":"firstNumber_","type":"uint256","indexed":false,"internalType":"uint256"},{"name":"secondNumber_","type":"uint256","indexed":false,"internalType":"uint256"},{"name":"resultado_","type":"uint256","indexed":false,"internalType":"uint256"}],"anonymous":false},{"type":"event","name":"Multiplication","inputs":[{"name":"firstNumber_","type":"uint256","indexed":false,"internalType":"uint256"},{"name":"secondNumber_","type":"uint256","indexed":false,"internalType":"uint256"},{"name":"resultado_","type":"uint256","indexed":false,"internalType":"uint256"}],"anonymous":false},{"type":"event","name":"Substraction","inputs":[{"name":"firstNumber_","type":"uint256","indexed":false,"internalType":"uint256"},{"name":"secondNumber_","type":"uint256","indexed":false,"internalType":"uint256"},{"name":"resultado_","type":"uint256","indexed":false,"internalType":"uint256"}],"anonymous":false}],"bytecode":{"object":"0x608060405234801561000f575f5ffd5b506040516107873803806107878339818101604052810190610031919061010f565b815f819055508060015f6101000a81548173ffffffffffffffffffffffffffffffffffffffff021916908373ffffffffffffffffffffffffffffffffffffffff160217905550505061014d565b5f5ffd5b5f819050919050565b61009481610082565b811461009e575f5ffd5b50565b5f815190506100af8161008b565b92915050565b5f73ffffffffffffffffffffffffffffffffffffffff82169050919050565b5f6100de826100b5565b9050919050565b6100ee816100d4565b81146100f8575f5ffd5b50565b5f81519050610109816100e5565b92915050565b5f5f604083850312156101255761012461007e565b5b5f610132858286016100a1565b9250506020610143858286016100fb565b9150509250929050565b61062d8061015a5f395ff3fe608060405234801561000f575f5ffd5b5060043610610060575f3560e01c80635206f1001461006457806354f363a314610082578063bbe562b0146100b2578063cdeb3314146100e2578063e006805214610112578063f851a44014610142575b5f5ffd5b61006c610160565b604051610079919061033c565b60405180910390f35b61009c60048036038101906100979190610383565b610165565b6040516100a9919061033c565b60405180910390f35b6100cc60048036038101906100c79190610383565b6101bb565b6040516100d9919061033c565b60405180910390f35b6100fc60048036038101906100f79190610383565b610211565b604051610109919061033c565b60405180910390f35b61012c60048036038101906101279190610383565b610267565b604051610139919061033c565b60405180910390f35b61014a6102ff565b6040516101579190610400565b60405180910390f35b5f5481565b5f81836101729190610446565b9050805f819055507f099a8fd2a0841afbe8000d711d763bf2c54b2c63bed7b7f92a244ef4f51545368383836040516101ad93929190610479565b60405180910390a192915050565b5f81836101c891906104ae565b9050805f819055507f335998e93ba3244a0211e8567928b9e75100151dc4bb0c7701d715ea462b279a83838360405161020393929190610479565b60405180910390a192915050565b5f818361021e91906104ef565b9050805f819055507f02325f53408b10d20290d06f069ad56eb7ecae5db225e14d71cda2c523652c5b83838360405161025993929190610479565b60405180910390a192915050565b5f5f82036102aa576040517f08c379a00000000000000000000000000000000000000000000000000000000081526004016102a19061057c565b60405180910390fd5b81836102b691906105c7565b9050805f819055507fd8ef84f712e41d28f98fe74cd153013023d849514d0a40ee61834f3c385055ce8383836040516102f193929190610479565b60405180910390a192915050565b60015f9054906101000a900473ffffffffffffffffffffffffffffffffffffffff1681565b5f819050919050565b61033681610324565b82525050565b5f60208201905061034f5f83018461032d565b92915050565b5f5ffd5b61036281610324565b811461036c575f5ffd5b50565b5f8135905061037d81610359565b92915050565b5f5f6040838503121561039957610398610355565b5b5f6103a68582860161036f565b92505060206103b78582860161036f565b9150509250929050565b5f73ffffffffffffffffffffffffffffffffffffffff82169050919050565b5f6103ea826103c1565b9050919050565b6103fa816103e0565b82525050565b5f6020820190506104135f8301846103f1565b92915050565b7f4e487b71000000000000000000000000000000000000000000000000000000005f52601160045260245ffd5b5f61045082610324565b915061045b83610324565b925082820190508082111561047357610472610419565b5b92915050565b5f60608201905061048c5f83018661032d565b610499602083018561032d565b6104a6604083018461032d565b949350505050565b5f6104b882610324565b91506104c383610324565b92508282026104d181610324565b915082820484148315176104e8576104e7610419565b5b5092915050565b5f6104f982610324565b915061050483610324565b925082820390508181111561051c5761051b610419565b5b92915050565b5f82825260208201905092915050565b7f596f752063616e206e6f7420646976696465206279207a65726f0000000000005f82015250565b5f610566601a83610522565b915061057182610532565b602082019050919050565b5f6020820190508181035f8301526105938161055a565b9050919050565b7f4e487b71000000000000000000000000000000000000000000000000000000005f52601260045260245ffd5b5f6105d182610324565b91506105dc83610324565b9250826105ec576105eb61059a565b5b82820490509291505056fea2646970667358221220f85e8336a423d4c0fb10aa9113a04e13ae6f9334e62c2beedf3757fdac8d28fc64736f6c63430008220033","linkReferences":{}},"methodIdentifiers":{"addition(uint256,uint256)":"54f363a3","admin()":"f851a440","division(uint256,uint256)":"e0068052","multiplication(uint256,uint256)":"bbe562b0","resultado()":"5206f100","substraction(uint256,uint256)":"cdeb3314"},"id":19}