{"abi":[{"type":"constructor","inputs":[{"name":"firstResultado_","type":"uint256","internalType":"uint256"},{"name":"admin_","type":"address","internalType":"address"}],"stateMutability":"nonpayable"},{"type":"function","name":"addition","inputs":[{"name":"firstNumber_","type":"uint256","internalType":"uint256"},{"name":"secondNumber_","type":"uint256","internalType":"uint256"}],"outputs":[{"name":"resultado_","type":"uint256","internalType":"uint256"}],"stateMutability":"nonpayable"},{"type":"function","name":"admin","inputs":[],"outputs":[{"name":"","type":"address","internalType":"address"}],"stateMutability":"view"},{"type":"function","name":"division","inputs":[{"name":"firstNumber_","type":"uint256","internalType":"uint256"},{"name":"secondNumber_","type":"uint256","internalType":"uint256"}],"outputs":[{"name":"resultado_","type":"uint256","internalType":"uint256"}],"stateMutability":"nonpayable"},{"type":"function","name":"multiplication","inputs":[{"name":"firstNumber_","type":"uint256","internalType":"uint256"},{"name":"secondNumber_","type":"uint256","internalType":"uint256"}],"outputs":[{"name":"resultado_","type":"uint256","internalType":"uint256"}],"stateMutability":"nonpayable"},{"type":"function","name":"resultado","inputs":[],"outputs":[{"name":"","type":"uint256","internalType":"uint256"}],"stateMutability":"view"},{"type":"function","name":"substraction","inputs":[{"name":"firstNumber_","type":"uint256","internalType":"uint256"},{"name":"secondNumber_","type":"uint256","internalType":"uint256"}],"outputs":[{"name":"resultado_","type":"uint256","internalType":"uint256"}],"stateMutability":"nonpayable"},{"type":"event","name":"Addition","inputs":[{"name":"firstNumber_","type":"uint256","indexed":false,"internalType":"uint256"},{"name":"secondNumber_","type":"uint256","indexed":false,"internalType":"uint256"},{"name":"resultado_","type":"uint256","indexed":false,"internalType":"uint256"}],"anonymous":false},{"type":"event","name":"Division","inputs":[{"name":"firstNumber_","type":"uint256","indexed":false,"internalType":"uint256"},{"name":"secondNumber_","type":"uint256","indexed":false,"internalType":"uint256"},{"name":"resultado_","type":"uint256","indexed":false,"internalType":"uint256"}],"anonymous":false},{"type":"event","name":"Multiplication","inputs":[{"name":"firstNumber_","type":"uint256","indexed":false,"internalType":"uint256"},{"name":"secondNumber_","type":"uint256","indexed":false,"internalType":"uint256"},{"name":"resultado_","type":"uint256","indexed":false,"internalType":"uint256"}],"anonymous":false},{"type":"event","name":"Substraction","inputs":[{"name":"firstNumber_","type":"uint256","indexed":false,"internalType":"uint256"},{"name":"secondNumber_","type":"uint256","indexed":false,"internalType":"uint256"},{"name":"resultado_","type":"uint256","indexed":false,"internalType":"uint256"}],"anonymous":false}],"bytecode":{"object":"0x608060405234801561000f575f5ffd5b506040516106cd3803806106cd8339818101604052810190610031919061010f565b815f819055508060015f6101000a81548173ffffffffffffffffffffffffffffffffffffffff021916908373ffffffffffffffffffffffffffffffffffffffff160217905550505061014d565b5f5ffd5b5f819050919050565b61009481610082565b811461009e575f5ffd5b50565b5f815190506100af8161008b565b92915050565b5f73ffffffffffffffffffffffffffffffffffffffff82169050919050565b5f6100de826100b5565b9050919050565b6100ee816100d4565b81146100f8575f5ffd5b50565b5f81519050610109816100e5565b92915050565b5f5f604083850312156101255761012461007e565b5b5f610132858286016100a1565b9250506020610143858286016100fb565b9150509250929050565b6105738061015a5f395ff3fe608060405234801561000f575f5ffd5b5060043610610060575f3560e01c80635206f1001461006457806354f363a314610082578063bbe562b0146100b2578063cdeb3314146100e2578063e006805214610112578063f851a44014610142575b5f5ffd5b61006c610160565b60405161007991906102fa565b60405180910390f35b61009c60048036038101906100979190610341565b610165565b6040516100a991906102fa565b60405180910390f35b6100cc60048036038101906100c79190610341565b6101bb565b6040516100d991906102fa565b60405180910390f35b6100fc60048036038101906100f79190610341565b610211565b60405161010991906102fa565b60405180910390f35b61012c60048036038101906101279190610341565b610267565b60405161013991906102fa565b60405180910390f35b61014a6102bd565b60405161015791906103be565b60405180910390f35b5f5481565b5f81836101729190610404565b9050805f819055507f099a8fd2a0841afbe8000d711d763bf2c54b2c63bed7b7f92a244ef4f51545368383836040516101ad93929190610437565b60405180910390a192915050565b5f81836101c8919061046c565b9050805f819055507f335998e93ba3244a0211e8567928b9e75100151dc4bb0c7701d715ea462b279a83838360405161020393929190610437565b60405180910390a192915050565b5f818361021e91906104ad565b9050805f819055507f02325f53408b10d20290d06f069ad56eb7ecae5db225e14d71cda2c523652c5b83838360405161025993929190610437565b60405180910390a192915050565b5f8183610274919061050d565b9050805f819055507fd8ef84f712e41d28f98fe74cd153013023d849514d0a40ee61834f3c385055ce8383836040516102af93929190610437565b60405180910390a192915050565b60015f9054906101000a900473ffffffffffffffffffffffffffffffffffffffff1681565b5f819050919050565b6102f4816102e2565b82525050565b5f60208201905061030d5f8301846102eb565b92915050565b5f5ffd5b610320816102e2565b811461032a575f5ffd5b50565b5f8135905061033b81610317565b92915050565b5f5f6040838503121561035757610356610313565b5b5f6103648582860161032d565b92505060206103758582860161032d565b9150509250929050565b5f73ffffffffffffffffffffffffffffffffffffffff82169050919050565b5f6103a88261037f565b9050919050565b6103b88161039e565b82525050565b5f6020820190506103d15f8301846103af565b92915050565b7f4e487b71000000000000000000000000000000000000000000000000000000005f52601160045260245ffd5b5f61040e826102e2565b9150610419836102e2565b9250828201905080821115610431576104306103d7565b5b92915050565b5f60608201905061044a5f8301866102eb565b61045760208301856102eb565b61046460408301846102eb565b949350505050565b5f610476826102e2565b9150610481836102e2565b925082820261048f816102e2565b915082820484148315176104a6576104a56103d7565b5b5092915050565b5f6104b7826102e2565b91506104c2836102e2565b92508282039050818111156104da576104d96103d7565b5b92915050565b7f4e487b71000000000000000000000000000000000000000000000000000000005f52601260045260245ffd5b5f610517826102e2565b9150610522836102e2565b925082610532576105316104e0565b5b82820490509291505056fea264697066735822122054d8fefcdbf8d06cac9fe818471b5f168378ea8136528b0cf0fe43208311794564736f6c63430008220033","linkReferences":{}},"methodIdentifiers":{"addition(uint256,uint256)":"54f363a3","admin()":"f851a440","division(uint256,uint256)":"e0068052","multiplication(uint256,uint256)":"bbe562b0","resultado()":"5206f100","substraction(uint256,uint256)":"cdeb3314"},"id":0}